{
  "contractName": "Rent",
  "abi": [
    {
      "inputs": [
        {
          "internalType": "address",
          "name": "_token",
          "type": "address"
        }
      ],
      "stateMutability": "nonpayable",
      "type": "constructor"
    },
    {
      "anonymous": false,
      "inputs": [
        {
          "indexed": false,
          "internalType": "address",
          "name": "new_owner",
          "type": "address"
        }
      ],
      "name": "OwnerChanged",
      "type": "event"
    },
    {
      "anonymous": false,
      "inputs": [
        {
          "indexed": false,
          "internalType": "address",
          "name": "tenant",
          "type": "address"
        },
        {
          "indexed": false,
          "internalType": "uint256",
          "name": "start_month",
          "type": "uint256"
        },
        {
          "indexed": false,
          "internalType": "uint256",
          "name": "last_month",
          "type": "uint256"
        }
      ],
      "name": "RentDenied",
      "type": "event"
    },
    {
      "anonymous": false,
      "inputs": [
        {
          "indexed": false,
          "internalType": "address",
          "name": "tenant",
          "type": "address"
        },
        {
          "indexed": false,
          "internalType": "uint256",
          "name": "start_month",
          "type": "uint256"
        },
        {
          "indexed": false,
          "internalType": "uint256",
          "name": "last_month",
          "type": "uint256"
        }
      ],
      "name": "Rented",
      "type": "event"
    },
    {
      "anonymous": false,
      "inputs": [
        {
          "indexed": false,
          "internalType": "address",
          "name": "tenant",
          "type": "address"
        }
      ],
      "name": "Unrented",
      "type": "event"
    },
    {
      "inputs": [
        {
          "internalType": "address",
          "name": "",
          "type": "address"
        }
      ],
      "name": "costForUser",
      "outputs": [
        {
          "internalType": "uint256",
          "name": "",
          "type": "uint256"
        }
      ],
      "stateMutability": "view",
      "type": "function"
    },
    {
      "inputs": [
        {
          "internalType": "uint256",
          "name": "_month",
          "type": "uint256"
        }
      ],
      "name": "rent",
      "outputs": [
        {
          "internalType": "uint256",
          "name": "price",
          "type": "uint256"
        }
      ],
      "stateMutability": "payable",
      "type": "function"
    },
    {
      "inputs": [
        {
          "internalType": "uint256",
          "name": "_startMonth",
          "type": "uint256"
        },
        {
          "internalType": "uint256",
          "name": "_lastMonth",
          "type": "uint256"
        }
      ],
      "name": "rent",
      "outputs": [
        {
          "internalType": "uint256",
          "name": "",
          "type": "uint256"
        }
      ],
      "stateMutability": "payable",
      "type": "function"
    },
    {
      "inputs": [],
      "name": "unrent",
      "outputs": [],
      "stateMutability": "nonpayable",
      "type": "function"
    },
    {
      "inputs": [
        {
          "internalType": "uint256",
          "name": "_new_cost",
          "type": "uint256"
        }
      ],
      "name": "changeCost",
      "outputs": [],
      "stateMutability": "nonpayable",
      "type": "function"
    },
    {
      "inputs": [],
      "name": "currentCost",
      "outputs": [
        {
          "internalType": "uint256",
          "name": "",
          "type": "uint256"
        }
      ],
      "stateMutability": "view",
      "type": "function"
    },
    {
      "inputs": [
        {
          "internalType": "address",
          "name": "_new_owner",
          "type": "address"
        }
      ],
      "name": "changeOwner",
      "outputs": [],
      "stateMutability": "nonpayable",
      "type": "function"
    },
    {
      "inputs": [],
      "name": "reset",
      "outputs": [],
      "stateMutability": "nonpayable",
      "type": "function"
    }
  ],
  "bytecode": "0x60806040523480156200001157600080fd5b506040516200164738038062001647833981810160405260208110156200003757600080fd5b810190808051906020019092919050505060018081905550336000806101000a81548173ffffffffffffffffffffffffffffffffffffffff021916908373ffffffffffffffffffffffffffffffffffffffff160217905550600c67ffffffffffffffff81118015620000a857600080fd5b50604051908082528060200260200182016040528015620000d85781602001602082028036833780820191505090505b5060029080519060200190620000f09291906200019b565b50600c67ffffffffffffffff811180156200010a57600080fd5b506040519080825280602002602001820160405280156200013a5781602001602082028036833780820191505090505b50600390805190602001906200015292919062000248565b5080600460006101000a81548173ffffffffffffffffffffffffffffffffffffffff021916908373ffffffffffffffffffffffffffffffffffffffff160217905550506200033e565b82805482825590600052602060002090601f01602090048101928215620002355791602002820160005b838211156200020457835183826101000a81548160ff0219169083151502179055509260200192600101602081600001049283019260010302620001c5565b8015620002335782816101000a81549060ff021916905560010160208160000104928301926001030262000204565b505b509050620002449190620002d7565b5090565b828054828255906000526020600020908101928215620002c4579160200282015b82811115620002c35782518260006101000a81548173ffffffffffffffffffffffffffffffffffffffff021916908373ffffffffffffffffffffffffffffffffffffffff1602179055509160200191906001019062000269565b5b509050620002d3919062000301565b5090565b5b80821115620002fd57600081816101000a81549060ff021916905550600101620002d8565b5090565b5b808211156200033a57600081816101000a81549073ffffffffffffffffffffffffffffffffffffffff02191690555060010162000302565b5090565b6112f9806200034e6000396000f3fe60806040526004361061007b5760003560e01c80639e1b70f11161004e5780639e1b70f114610174578063a6f9dae11461018b578063d826f88f146101dc578063f5d9c21f146101f35761007b565b8063368dde4b146100805780635cb85cd2146100ab5780637456be7d146100e6578063783a112b14610128575b600080fd5b34801561008c57600080fd5b50610095610258565b6040518082815260200191505060405180910390f35b3480156100b757600080fd5b506100e4600480360360208110156100ce57600080fd5b8101908080359060200190929190505050610262565b005b610112600480360360208110156100fc57600080fd5b810190808035906020019092919050505061032d565b6040518082815260200191505060405180910390f35b61015e6004803603604081101561013e57600080fd5b810190808035906020019092919080359060200190929190505050610710565b6040518082815260200191505060405180910390f35b34801561018057600080fd5b50610189610a3c565b005b34801561019757600080fd5b506101da600480360360208110156101ae57600080fd5b81019080803573ffffffffffffffffffffffffffffffffffffffff169060200190929190505050610dda565b005b3480156101e857600080fd5b506101f1610f2b565b005b3480156101ff57600080fd5b506102426004803603602081101561021657600080fd5b81019080803573ffffffffffffffffffffffffffffffffffffffff1690602001909291905050506110b2565b6040518082815260200191505060405180910390f35b6000600154905090565b60008054906101000a900473ffffffffffffffffffffffffffffffffffffffff1673ffffffffffffffffffffffffffffffffffffffff163373ffffffffffffffffffffffffffffffffffffffff1614610323576040517f08c379a00000000000000000000000000000000000000000000000000000000081526004018080602001828103825260158152602001807f4f6e6c79206f776e65722063616e20646f20697421000000000000000000000081525060200191505060405180910390fd5b8060018190555050565b6000600460009054906101000a900473ffffffffffffffffffffffffffffffffffffffff1673ffffffffffffffffffffffffffffffffffffffff1663c7c7e9ea33306040518363ffffffff1660e01b8152600401808373ffffffffffffffffffffffffffffffffffffffff1681526020018273ffffffffffffffffffffffffffffffffffffffff1681526020019250505060206040518083038186803b1580156103d657600080fd5b505afa1580156103ea573d6000803e3d6000fd5b505050506040513d602081101561040057600080fd5b81019080805190602001909291905050506001541115610488576040517f08c379a00000000000000000000000000000000000000000000000000000000081526004018080602001828103825260148152602001807f416c6c6f7720776974686472617720666972737400000000000000000000000081525060200191505060405180910390fd5b61049282836110ca565b156106a957600460009054906101000a900473ffffffffffffffffffffffffffffffffffffffff1673ffffffffffffffffffffffffffffffffffffffff166379cc6790336001546040518363ffffffff1660e01b8152600401808373ffffffffffffffffffffffffffffffffffffffff16815260200182815260200192505050602060405180830381600087803b15801561052c57600080fd5b505af1158015610540573d6000803e3d6000fd5b505050506040513d602081101561055657600080fd5b81019080805190602001909291905050505060016002600184038154811061057a57fe5b90600052602060002090602091828204019190066101000a81548160ff021916908315150217905550600154600560003373ffffffffffffffffffffffffffffffffffffffff1673ffffffffffffffffffffffffffffffffffffffff1681526020019081526020016000208190555033600360018403815481106105fa57fe5b9060005260206000200160006101000a81548173ffffffffffffffffffffffffffffffffffffffff021916908373ffffffffffffffffffffffffffffffffffffffff1602179055507f7c9d2ac912c28eb5f87522b3a227c33e0884aa9c28bf987198e395fe62c49138338384604051808473ffffffffffffffffffffffffffffffffffffffff168152602001838152602001828152602001935050505060405180910390a1600154905061070b565b7fa73ddce49b3bae9c7e656a83d190099a124002c1b3b9dd17385a9c2394a244ff338384604051808473ffffffffffffffffffffffffffffffffffffffff168152602001838152602001828152602001935050505060405180910390a1600090505b919050565b600082826000828203101561078d576040517f08c379a00000000000000000000000000000000000000000000000000000000081526004018080602001828103825260128152602001807f4e6f7420636f7272656374206d6f6e746873000000000000000000000000000081525060200191505060405180910390fd5b61079785856110ca565b156109d2576000600186860301600154029050600460009054906101000a900473ffffffffffffffffffffffffffffffffffffffff1673ffffffffffffffffffffffffffffffffffffffff166379cc679033836040518363ffffffff1660e01b8152600401808373ffffffffffffffffffffffffffffffffffffffff16815260200182815260200192505050602060405180830381600087803b15801561083d57600080fd5b505af1158015610851573d6000803e3d6000fd5b505050506040513d602081101561086757600080fd5b81019080805190602001909291905050505060008690505b8581116109275760016002600183038154811061089857fe5b90600052602060002090602091828204019190066101000a81548160ff02191690831515021790555033600360018303815481106108d257fe5b9060005260206000200160006101000a81548173ffffffffffffffffffffffffffffffffffffffff021916908373ffffffffffffffffffffffffffffffffffffffff160217905550808060010191505061087f565b5080600560003373ffffffffffffffffffffffffffffffffffffffff1673ffffffffffffffffffffffffffffffffffffffff168152602001908152602001600020819055507f7c9d2ac912c28eb5f87522b3a227c33e0884aa9c28bf987198e395fe62c49138338787604051808473ffffffffffffffffffffffffffffffffffffffff168152602001838152602001828152602001935050505060405180910390a180935050610a34565b7fa73ddce49b3bae9c7e656a83d190099a124002c1b3b9dd17385a9c2394a244ff338686604051808473ffffffffffffffffffffffffffffffffffffffff168152602001838152602001828152602001935050505060405180910390a1600092505b505092915050565b6000805b600380549050811015610ace573373ffffffffffffffffffffffffffffffffffffffff1660038281548110610a7157fe5b9060005260206000200160009054906101000a900473ffffffffffffffffffffffffffffffffffffffff1673ffffffffffffffffffffffffffffffffffffffff161415610ac15760019150610ace565b8080600101915050610a40565b5080610b42576040517f08c379a00000000000000000000000000000000000000000000000000000000081526004018080602001828103825260198152602001807f4973206e6f742072657365727665642062792073656e6465720000000000000081525060200191505060405180910390fd5b60005b600380549050811015610c5a573373ffffffffffffffffffffffffffffffffffffffff1660038281548110610b7657fe5b9060005260206000200160009054906101000a900473ffffffffffffffffffffffffffffffffffffffff1673ffffffffffffffffffffffffffffffffffffffff161415610c4d57600060038281548110610bcc57fe5b9060005260206000200160006101000a81548173ffffffffffffffffffffffffffffffffffffffff021916908373ffffffffffffffffffffffffffffffffffffffff160217905550600060028281548110610c2357fe5b90600052602060002090602091828204019190066101000a81548160ff0219169083151502179055505b8080600101915050610b45565b50600460009054906101000a900473ffffffffffffffffffffffffffffffffffffffff1673ffffffffffffffffffffffffffffffffffffffff166340c10f1933600560003373ffffffffffffffffffffffffffffffffffffffff1673ffffffffffffffffffffffffffffffffffffffff168152602001908152602001600020546040518363ffffffff1660e01b8152600401808373ffffffffffffffffffffffffffffffffffffffff16815260200182815260200192505050600060405180830381600087803b158015610d2d57600080fd5b505af1158015610d41573d6000803e3d6000fd5b505050506000600560003373ffffffffffffffffffffffffffffffffffffffff1673ffffffffffffffffffffffffffffffffffffffff168152602001908152602001600020819055507f890dc202ccfa51d2d76992dfb9a07313cc3df1cae3c68a74cf8e382589342f9933604051808273ffffffffffffffffffffffffffffffffffffffff16815260200191505060405180910390a150565b60008054906101000a900473ffffffffffffffffffffffffffffffffffffffff1673ffffffffffffffffffffffffffffffffffffffff163373ffffffffffffffffffffffffffffffffffffffff1614610e9b576040517f08c379a00000000000000000000000000000000000000000000000000000000081526004018080602001828103825260158152602001807f4f6e6c79206f776e65722063616e20646f20697421000000000000000000000081525060200191505060405180910390fd5b806000806101000a81548173ffffffffffffffffffffffffffffffffffffffff021916908373ffffffffffffffffffffffffffffffffffffffff1602179055507fa2ea9883a321a3e97b8266c2b078bfeec6d50c711ed71f874a90d500ae2eaf3681604051808273ffffffffffffffffffffffffffffffffffffffff16815260200191505060405180910390a150565b60008054906101000a900473ffffffffffffffffffffffffffffffffffffffff1673ffffffffffffffffffffffffffffffffffffffff163373ffffffffffffffffffffffffffffffffffffffff1614610fec576040517f08c379a00000000000000000000000000000000000000000000000000000000081526004018080602001828103825260158152602001807f4f6e6c79206f776e65722063616e20646f20697421000000000000000000000081525060200191505060405180910390fd5b6064600181905550600c67ffffffffffffffff8111801561100c57600080fd5b5060405190808252806020026020018201604052801561103b5781602001602082028036833780820191505090505b5060029080519060200190611051929190611130565b50600c67ffffffffffffffff8111801561106a57600080fd5b506040519080825280602002602001820160405280156110995781602001602082028036833780820191505090505b50600390805190602001906110af9291906111d6565b50565b60056020528060005260406000206000915090505481565b6000808390505b82811161112457600260018203815481106110e857fe5b90600052602060002090602091828204019190069054906101000a900460ff161561111757600091505061112a565b80806001019150506110d1565b50600190505b92915050565b82805482825590600052602060002090601f016020900481019282156111c55791602002820160005b8382111561119657835183826101000a81548160ff0219169083151502179055509260200192600101602081600001049283019260010302611159565b80156111c35782816101000a81549060ff0219169055600101602081600001049283019260010302611196565b505b5090506111d29190611260565b5090565b82805482825590600052602060002090810192821561124f579160200282015b8281111561124e5782518260006101000a81548173ffffffffffffffffffffffffffffffffffffffff021916908373ffffffffffffffffffffffffffffffffffffffff160217905550916020019190600101906111f6565b5b50905061125c9190611288565b5090565b5b8082111561128457600081816101000a81549060ff021916905550600101611261565b5090565b5b808211156112bf57600081816101000a81549073ffffffffffffffffffffffffffffffffffffffff021916905550600101611289565b509056fea2646970667358221220629a12ae7788a0eb4a0454cc514e07a4f960dc7b427a2ce21196fc7a716d345364736f6c634300060c0033",
  "immutableReferences": {},
  "source": "// SPDX-License-Identifier: MIT\r\npragma solidity >=0.4.22 <0.9.0;\r\n\r\nimport \"./RentCoin.sol\";\r\n\r\ncontract Rent {\r\n    \r\n    address private owner;\r\n    uint private cost;\r\n    bool[] private reserved_months;\r\n    address[] private tenants;\r\n    RentCoin private token;\r\n    mapping (address => uint256) public costForUser;\r\n\r\n\r\n    constructor(address _token) public{\r\n        cost = 1;\r\n        owner = msg.sender;\r\n        reserved_months = new bool[](12);\r\n        tenants = new address[](12);\r\n        token = RentCoin(_token);\r\n    }\r\n\r\n    modifier isOwner() {\r\n        require(\r\n            msg.sender == owner,\r\n            \"Only owner can do it!\"\r\n        );\r\n        _;\r\n    }\r\n\r\n    modifier isCorrect(uint _startMonth, uint _lastMonth) {\r\n        require(\r\n           _lastMonth - _startMonth >= 0,\r\n           'Not correct months'\r\n        );\r\n        _;\r\n    }\r\n\r\n    modifier isReservedBy() {\r\n        bool isReserved = false;\r\n        for(uint i = 0; i < tenants.length; i++) {\r\n            if(tenants[i] == msg.sender) {\r\n                isReserved = true;\r\n                break;\r\n            }\r\n        }\r\n        require(isReserved, 'Is not reserved by sender');\r\n        _;\r\n    }\r\n\r\n    event Rented(address tenant, uint start_month, uint last_month); \r\n    event RentDenied(address tenant, uint start_month, uint last_month);\r\n    event OwnerChanged(address new_owner);\r\n    event Unrented(address tenant);\r\n\r\n    function isNotReserved(uint _startMonth, uint _lastMonth) private view returns(bool){\r\n        for(uint i = _startMonth; i <= _lastMonth; i++) {\r\n            if(reserved_months[i - 1]) {\r\n                return false;\r\n            } \r\n        }\r\n        return true;\r\n    }\r\n\r\n    function rent(uint _month) external payable returns(uint price) {\r\n        require( cost <= token.getAllowed(msg.sender, address(this)), \"Allow withdraw first\");\r\n        if(isNotReserved(_month, _month)) {\r\n            token.burnFrom(msg.sender, cost);\r\n            reserved_months[_month - 1] = true;\r\n            costForUser[msg.sender] = cost;\r\n            tenants[_month - 1] = msg.sender;\r\n            emit Rented(msg.sender, _month, _month);\r\n            return cost;\r\n        }\r\n        emit RentDenied((msg.sender), _month, _month);\r\n        return 0;\r\n    }\r\n\r\n    function rent(uint _startMonth, uint _lastMonth) external payable isCorrect(_startMonth, _lastMonth) returns(uint) {\r\n        //require( cost*(_lastMonth - _startMonth) <= token.getAllowed(msg.sender, address(this)), \"Allow withdraw first\");\r\n        if(isNotReserved(_startMonth, _lastMonth)) {\r\n            uint price = cost * uint(_lastMonth - _startMonth + 1);\r\n            token.burnFrom(msg.sender, price);\r\n            for (uint i = _startMonth; i <= _lastMonth; i++) {\r\n                reserved_months[i - 1] = true;\r\n                tenants[i - 1] = msg.sender;\r\n            }\r\n            costForUser[msg.sender] = price;\r\n            emit Rented(msg.sender, _startMonth, _lastMonth);\r\n            return price;\r\n        } else {\r\n            emit RentDenied(msg.sender, _startMonth, _lastMonth);\r\n            return 0;\r\n        }\r\n    }\r\n\r\n    function unrent() public isReservedBy(){\r\n        for(uint i = 0; i < tenants.length; i++) {\r\n            if(tenants[i] == msg.sender) {\r\n                tenants[i] = address(0);\r\n                reserved_months[i] = false;\r\n            }\r\n        }\r\n        token.mint(msg.sender, costForUser[msg.sender]);\r\n        costForUser[msg.sender] = 0;\r\n        emit Unrented(msg.sender);\r\n    }\r\n\r\n    function changeCost(uint _new_cost) public isOwner {\r\n        cost = _new_cost;\r\n    }\r\n\r\n    function currentCost() public view returns(uint) {\r\n        return cost;\r\n    }\r\n\r\n    function changeOwner(address _new_owner) public isOwner() {\r\n        owner = _new_owner;\r\n        emit OwnerChanged(_new_owner);\r\n    }\r\n    \r\n    function reset() public isOwner() {\r\n        cost = 100;\r\n        reserved_months = new bool[](12);\r\n        tenants = new address[](12);\r\n    }\r\n}",
  "sourcePath": "C:\\Users\\balae\\Documents\\smart-contracts\\contracts\\Rent.sol",
  "compiler": {
    "name": "solc",
    "version": "0.6.12+commit.27d51765.Emscripten.clang"
  },
  "schemaVersion": "3.4.3",
  "updatedAt": "2021-10-27T18:39:05.898Z",
  "devdoc": {
    "kind": "dev",
    "methods": {},
    "version": 1
  },
  "userdoc": {
    "kind": "user",
    "methods": {},
    "version": 1
  }
}